{
  "contractName": "Dacademy",
  "abi": [
    {
      "inputs": [],
      "stateMutability": "nonpayable",
      "type": "constructor"
    },
    {
      "inputs": [],
      "name": "CourseHasOwner",
      "type": "error"
    },
    {
      "inputs": [],
      "name": "CourseIsNotCreated",
      "type": "error"
    },
    {
      "inputs": [],
      "name": "isStopped",
      "outputs": [
        {
          "internalType": "bool",
          "name": "",
          "type": "bool"
        }
      ],
      "stateMutability": "view",
      "type": "function",
      "constant": true
    },
    {
      "inputs": [],
      "name": "stopContract",
      "outputs": [],
      "stateMutability": "nonpayable",
      "type": "function"
    },
    {
      "inputs": [],
      "name": "resumeContract",
      "outputs": [],
      "stateMutability": "nonpayable",
      "type": "function"
    },
    {
      "inputs": [
        {
          "internalType": "bytes16",
          "name": "courseId",
          "type": "bytes16"
        },
        {
          "internalType": "bytes32",
          "name": "proof",
          "type": "bytes32"
        }
      ],
      "name": "purchaseCourse",
      "outputs": [],
      "stateMutability": "payable",
      "type": "function",
      "payable": true
    },
    {
      "inputs": [],
      "name": "transferCourseOwnership",
      "outputs": [],
      "stateMutability": "payable",
      "type": "function",
      "payable": true
    }
  ],
  "bytecode": "0x608060405260008060146101000a81548160ff02191690831515021790555034801561002a57600080fd5b5061003a3361003f60201b60201c565b610082565b806000806101000a81548173ffffffffffffffffffffffffffffffffffffffff021916908373ffffffffffffffffffffffffffffffffffffffff16021790555050565b610633806100916000396000f3fe60806040526004361061004a5760003560e01c80631136d0051461004f57806312253a6c146100595780633f683b6a14610070578063c4bc5da51461009b578063d76821cb146100b2575b600080fd5b6100576100ce565b005b34801561006557600080fd5b5061006e6100d0565b005b34801561007c57600080fd5b50610085610145565b60405161009291906103c7565b60405180910390f35b3480156100a757600080fd5b506100b0610158565b005b6100cc60048036038101906100c79190610475565b6101cc565b005b565b3373ffffffffffffffffffffffffffffffffffffffff1660008054906101000a900473ffffffffffffffffffffffffffffffffffffffff1673ffffffffffffffffffffffffffffffffffffffff161461012857600080fd5b6001600060146101000a81548160ff021916908315150217905550565b600060149054906101000a900460ff1681565b3373ffffffffffffffffffffffffffffffffffffffff1660008054906101000a900473ffffffffffffffffffffffffffffffffffffffff1673ffffffffffffffffffffffffffffffffffffffff16146101b057600080fd5b60008060146101000a81548160ff021916908315150217905550565b600060149054906101000a900460ff16156101e657600080fd5b600082336040516020016101fb929190610550565b60405160208183030381529060405280519060200120905061021c8161033e565b15610253576040517fb0fc2d9700000000000000000000000000000000000000000000000000000000815260040160405180910390fd5b600060016000815480929190610268906105b5565b91905055905081600360008381526020019081526020016000208190555060405180608001604052808281526020013481526020018481526020013373ffffffffffffffffffffffffffffffffffffffff168152506002600084815260200190815260200160002060008201518160000155602082015181600101556040820151816002015560608201518160030160006101000a81548173ffffffffffffffffffffffffffffffffffffffff021916908373ffffffffffffffffffffffffffffffffffffffff16021790555090505050505050565b60003373ffffffffffffffffffffffffffffffffffffffff166002600084815260200190815260200160002060030160009054906101000a900473ffffffffffffffffffffffffffffffffffffffff1673ffffffffffffffffffffffffffffffffffffffff16149050919050565b60008115159050919050565b6103c1816103ac565b82525050565b60006020820190506103dc60008301846103b8565b92915050565b600080fd5b60007fffffffffffffffffffffffffffffffff0000000000000000000000000000000082169050919050565b61041c816103e7565b811461042757600080fd5b50565b60008135905061043981610413565b92915050565b6000819050919050565b6104528161043f565b811461045d57600080fd5b50565b60008135905061046f81610449565b92915050565b6000806040838503121561048c5761048b6103e2565b5b600061049a8582860161042a565b92505060206104ab85828601610460565b9150509250929050565b6000819050919050565b6104d06104cb826103e7565b6104b5565b82525050565b600073ffffffffffffffffffffffffffffffffffffffff82169050919050565b6000610501826104d6565b9050919050565b60008160601b9050919050565b600061052082610508565b9050919050565b600061053282610515565b9050919050565b61054a610545826104f6565b610527565b82525050565b600061055c82856104bf565b60108201915061056c8284610539565b6014820191508190509392505050565b7f4e487b7100000000000000000000000000000000000000000000000000000000600052601160045260246000fd5b6000819050919050565b60006105c0826105ab565b91507fffffffffffffffffffffffffffffffffffffffffffffffffffffffffffffffff82036105f2576105f161057c565b5b60018201905091905056fea2646970667358221220ebccc81ce399687fd0040ef9dfc897da4d974eeafefddeca935c63eab6b9bcfd64736f6c634300080d0033",
  "immutableReferences": {},
  "source": "// SPDX-License-Identifier: MIT\n// Tells the Solidity compiler to compile only from v0.8.13 to v0.9.0\npragma solidity ^0.8.13;\n\ncontract Dacademy {\n\tstruct Course {\n\t\tuint id;\n\t\tuint price;  \n\t\tbytes32 proof; \n\t\taddress owner;\n\t} \n\n\taddress payable private owner;\n\tbool public isStopped = false;\n\tuint private totalOwnedCourses;\n\tmapping(bytes32 => Course) private ownedCourses;\n\tmapping(uint => bytes32) private ownedCourseHash;\n\t\n\n\tconstructor() {\n\t\tsetContractOwner(msg.sender);\n\t}\n\n\t/// Course is not created!\n  \terror CourseIsNotCreated();\n\n\t/// Course already has an Owner!\n  \terror CourseHasOwner();\n\n\tmodifier onlyOwner () {\n\t\trequire(owner == msg.sender);\n\t\t_;\n\t}\n\n\tmodifier onlyWhenNotStopped () {\n\t\trequire(!isStopped);\n\t\t_;\n\t}\n\n\tmodifier onlyWhenStopped () {\n\t\trequire(isStopped);\n\t\t_;\n\t}\n\n\tfunction setContractOwner(address newOwner) private {\n\t\towner = payable(newOwner);\n\t}\n\n\tfunction stopContract()\n    \texternal\n    \tonlyOwner()\n  \t{\n    \tisStopped = true;\n  \t}\n\n  \tfunction resumeContract()\n    \texternal\n   \t \tonlyOwner()\n  \t{\n    \tisStopped = false;\n  \t}\n\n\tfunction purchaseCourse(\n\t\tbytes16 courseId,\n    \tbytes32 proof\n\t) \n\t\texternal \n\t\tpayable \n\t\tonlyWhenNotStopped \n\t{\n\t\tbytes32 courseHash = keccak256(abi.encodePacked(courseId, msg.sender));\n\t\tif(hasCourseOwnership(courseHash)) {\n\t\t\trevert CourseHasOwner();\n\t\t}\n\n\t\tuint id = totalOwnedCourses++;\n\t\townedCourseHash[id] = courseHash;\n\t\townedCourses[courseHash] =  Course({\n\t\t\tid: id,\n\t\t\tprice: msg.value,\n\t\t\tproof: proof,\n\t\t\towner: msg.sender\n\t\t\t// state: State.Purchased\n\t\t});\n\n\t}\n\n\tfunction transferCourseOwnership() \n\t\texternal \n\t\tpayable \n\t{\n\t}\n\n\tfunction hasCourseOwnership(bytes32 courseHash)\n\t\tprivate\n\t\tview\n\t\treturns(bool)\n\t{\n\t\treturn ownedCourses[courseHash].owner == msg.sender;\n\t}\n}\n",
  "sourcePath": "/Users/theophilusighalo/Projects/devdezyn/dacademy/etheruem/contracts/Dacademy.sol",
  "compiler": {
    "name": "solc",
    "version": "0.8.13+commit.abaa5c0e.Emscripten.clang"
  },
  "schemaVersion": "3.4.14",
  "updatedAt": "2023-08-06T13:11:34.695Z",
  "networkType": "ethereum",
  "devdoc": {
    "kind": "dev",
    "methods": {},
    "version": 1
  },
  "userdoc": {
    "errors": {
      "CourseHasOwner()": [
        {
          "notice": "Course already has an Owner!"
        }
      ],
      "CourseIsNotCreated()": [
        {
          "notice": "Course is not created!"
        }
      ]
    },
    "kind": "user",
    "methods": {},
    "version": 1
  }
}