{
  "contractName": "Dacademy",
  "abi": [
    {
      "inputs": [],
      "stateMutability": "nonpayable",
      "type": "constructor"
    },
    {
      "inputs": [],
      "name": "CourseHasOwner",
      "type": "error"
    },
    {
      "inputs": [],
      "name": "CourseIsNotCreated",
      "type": "error"
    },
    {
      "inputs": [],
      "name": "OnlyOwner",
      "type": "error"
    },
    {
      "inputs": [],
      "name": "SenderIsNotCourseOwner",
      "type": "error"
    },
    {
      "inputs": [],
      "name": "isStopped",
      "outputs": [
        {
          "internalType": "bool",
          "name": "",
          "type": "bool"
        }
      ],
      "stateMutability": "view",
      "type": "function",
      "constant": true
    },
    {
      "inputs": [],
      "name": "stopContract",
      "outputs": [],
      "stateMutability": "nonpayable",
      "type": "function"
    },
    {
      "inputs": [],
      "name": "resumeContract",
      "outputs": [],
      "stateMutability": "nonpayable",
      "type": "function"
    },
    {
      "inputs": [
        {
          "internalType": "bytes32",
          "name": "courseId",
          "type": "bytes32"
        },
        {
          "internalType": "bytes32",
          "name": "proof",
          "type": "bytes32"
        }
      ],
      "name": "purchaseCourse",
      "outputs": [],
      "stateMutability": "payable",
      "type": "function",
      "payable": true
    },
    {
      "inputs": [],
      "name": "transferCourseOwnership",
      "outputs": [],
      "stateMutability": "payable",
      "type": "function",
      "payable": true
    },
    {
      "inputs": [],
      "name": "getCourseCount",
      "outputs": [
        {
          "internalType": "uint256",
          "name": "",
          "type": "uint256"
        }
      ],
      "stateMutability": "view",
      "type": "function",
      "constant": true
    },
    {
      "inputs": [
        {
          "internalType": "uint256",
          "name": "index",
          "type": "uint256"
        }
      ],
      "name": "getCourseHashAtIndex",
      "outputs": [
        {
          "internalType": "bytes32",
          "name": "",
          "type": "bytes32"
        }
      ],
      "stateMutability": "view",
      "type": "function",
      "constant": true
    },
    {
      "inputs": [
        {
          "internalType": "bytes32",
          "name": "courseHash",
          "type": "bytes32"
        }
      ],
      "name": "getCourseByHash",
      "outputs": [
        {
          "components": [
            {
              "internalType": "uint256",
              "name": "id",
              "type": "uint256"
            },
            {
              "internalType": "uint256",
              "name": "price",
              "type": "uint256"
            },
            {
              "internalType": "bytes32",
              "name": "proof",
              "type": "bytes32"
            },
            {
              "internalType": "address",
              "name": "owner",
              "type": "address"
            },
            {
              "internalType": "enum Dacademy.State",
              "name": "state",
              "type": "uint8"
            }
          ],
          "internalType": "struct Dacademy.Course",
          "name": "",
          "type": "tuple"
        }
      ],
      "stateMutability": "view",
      "type": "function",
      "constant": true
    }
  ],
  "bytecode": "0x608060405260008060146101000a81548160ff02191690831515021790555034801561002a57600080fd5b5061003a3361003f60201b60201c565b610082565b806000806101000a81548173ffffffffffffffffffffffffffffffffffffffff021916908373ffffffffffffffffffffffffffffffffffffffff16021790555050565b610a58806100916000396000f3fe60806040526004361061007b5760003560e01c806362e4e6ac1161004e57806362e4e6ac146100e85780636d11290b1461012557806396cfda0614610162578063c4bc5da51461018d5761007b565b80631136d0051461008057806312253a6c1461008a5780632f27f51a146100a15780633f683b6a146100bd575b600080fd5b6100886101a4565b005b34801561009657600080fd5b5061009f6101a6565b005b6100bb60048036038101906100b69190610663565b61021b565b005b3480156100c957600080fd5b506100d26103d6565b6040516100df91906106be565b60405180910390f35b3480156100f457600080fd5b5061010f600480360381019061010a91906106d9565b6103e9565b60405161011c919061084e565b60405180910390f35b34801561013157600080fd5b5061014c60048036038101906101479190610895565b6104c5565b60405161015991906108d1565b60405180910390f35b34801561016e57600080fd5b506101776104e2565b60405161018491906108fb565b60405180910390f35b34801561019957600080fd5b506101a26104ec565b005b565b3373ffffffffffffffffffffffffffffffffffffffff1660008054906101000a900473ffffffffffffffffffffffffffffffffffffffff1673ffffffffffffffffffffffffffffffffffffffff16146101fe57600080fd5b6001600060146101000a81548160ff021916908315150217905550565b600060149054906101000a900460ff161561023557600080fd5b6000823360405160200161024a92919061097f565b60405160208183030381529060405280519060200120905061026b81610560565b156102a2576040517fb0fc2d9700000000000000000000000000000000000000000000000000000000815260040160405180910390fd5b6000600160008154809291906102b7906109da565b9190505590508160036000838152602001908152602001600020819055506040518060a001604052808281526020013481526020018481526020013373ffffffffffffffffffffffffffffffffffffffff168152602001600060028111156103225761032161076f565b5b8152506002600084815260200190815260200160002060008201518160000155602082015181600101556040820151816002015560608201518160030160006101000a81548173ffffffffffffffffffffffffffffffffffffffff021916908373ffffffffffffffffffffffffffffffffffffffff16021790555060808201518160030160146101000a81548160ff021916908360028111156103c8576103c761076f565b5b021790555090505050505050565b600060149054906101000a900460ff1681565b6103f16105ce565b600260008381526020019081526020016000206040518060a00160405290816000820154815260200160018201548152602001600282015481526020016003820160009054906101000a900473ffffffffffffffffffffffffffffffffffffffff1673ffffffffffffffffffffffffffffffffffffffff1673ffffffffffffffffffffffffffffffffffffffff1681526020016003820160149054906101000a900460ff1660028111156104a8576104a761076f565b5b60028111156104ba576104b961076f565b5b815250509050919050565b600060036000838152602001908152602001600020549050919050565b6000600154905090565b3373ffffffffffffffffffffffffffffffffffffffff1660008054906101000a900473ffffffffffffffffffffffffffffffffffffffff1673ffffffffffffffffffffffffffffffffffffffff161461054457600080fd5b60008060146101000a81548160ff021916908315150217905550565b60003373ffffffffffffffffffffffffffffffffffffffff166002600084815260200190815260200160002060030160009054906101000a900473ffffffffffffffffffffffffffffffffffffffff1673ffffffffffffffffffffffffffffffffffffffff16149050919050565b6040518060a00160405280600081526020016000815260200160008019168152602001600073ffffffffffffffffffffffffffffffffffffffff168152602001600060028111156106225761062161076f565b5b81525090565b600080fd5b6000819050919050565b6106408161062d565b811461064b57600080fd5b50565b60008135905061065d81610637565b92915050565b6000806040838503121561067a57610679610628565b5b60006106888582860161064e565b92505060206106998582860161064e565b9150509250929050565b60008115159050919050565b6106b8816106a3565b82525050565b60006020820190506106d360008301846106af565b92915050565b6000602082840312156106ef576106ee610628565b5b60006106fd8482850161064e565b91505092915050565b6000819050919050565b61071981610706565b82525050565b6107288161062d565b82525050565b600073ffffffffffffffffffffffffffffffffffffffff82169050919050565b60006107598261072e565b9050919050565b6107698161074e565b82525050565b7f4e487b7100000000000000000000000000000000000000000000000000000000600052602160045260246000fd5b600381106107af576107ae61076f565b5b50565b60008190506107c08261079e565b919050565b60006107d0826107b2565b9050919050565b6107e0816107c5565b82525050565b60a0820160008201516107fc6000850182610710565b50602082015161080f6020850182610710565b506040820151610822604085018261071f565b5060608201516108356060850182610760565b50608082015161084860808501826107d7565b50505050565b600060a08201905061086360008301846107e6565b92915050565b61087281610706565b811461087d57600080fd5b50565b60008135905061088f81610869565b92915050565b6000602082840312156108ab576108aa610628565b5b60006108b984828501610880565b91505092915050565b6108cb8161062d565b82525050565b60006020820190506108e660008301846108c2565b92915050565b6108f581610706565b82525050565b600060208201905061091060008301846108ec565b92915050565b6000819050919050565b61093161092c8261062d565b610916565b82525050565b60008160601b9050919050565b600061094f82610937565b9050919050565b600061096182610944565b9050919050565b6109796109748261074e565b610956565b82525050565b600061098b8285610920565b60208201915061099b8284610968565b6014820191508190509392505050565b7f4e487b7100000000000000000000000000000000000000000000000000000000600052601160045260246000fd5b60006109e582610706565b91507fffffffffffffffffffffffffffffffffffffffffffffffffffffffffffffffff8203610a1757610a166109ab565b5b60018201905091905056fea2646970667358221220718f8360f80fa13529bee30b27689a10335ab58b74ebe1167f94030da719d5d164736f6c634300080d0033",
  "immutableReferences": {},
  "source": "// SPDX-License-Identifier: MIT\n// Tells the Solidity compiler to compile only from v0.8.13 to v0.9.0\n// pragma solidity ^0.8.13;\npragma solidity >=0.4.22 <0.9.0;\n\ncontract Dacademy {\n\tenum State {\n\t\tPurchased,\n\t\tActivated,\n\t\tDeactivated\n\t}\n\n\tstruct Course {\n\t\t// storage values\n\t\tuint id; // 32 // uint comprises postive(+) values only  \n\t\tuint price; // 32\n\t\tbytes32 proof; // 32\n\t\taddress owner; // 20\n\t\tState state; // 1\n\t} \n\n\taddress payable private owner;\n\tbool public isStopped = false;\n\tuint private totalOwnedCourses;\n\tmapping(bytes32 => Course) private ownedCourses;\n\tmapping(uint => bytes32) private ownedCourseHash;\n\t\n\n\tconstructor() {\n\t\tsetContractOwner(msg.sender);\n\t}\n\n\t/// Course is not created!\n  \terror CourseIsNotCreated();\n\n\t/// Course already has an Owner!\n  \terror CourseHasOwner();\n\n\t/// Sender is not Course Owner!\n\terror SenderIsNotCourseOwner();\n\n\t/// Only the owner of this Course can transfer ownership!\n\terror OnlyOwner();\n\n\tmodifier onlyOwner () {\n\t\trequire(owner == msg.sender);\n\t\t_;\n\t}\n\n\tmodifier onlyWhenNotStopped () {\n\t\trequire(!isStopped);\n\t\t_;\n\t}\n\n\tmodifier onlyWhenStopped () {\n\t\trequire(isStopped);\n\t\t_;\n\t}\n\n\tfunction setContractOwner(address newOwner) private {\n\t\towner = payable(newOwner);\n\t}\n\n\tfunction stopContract()\n    \texternal\n    \tonlyOwner()\n  \t{\n    \tisStopped = true;\n  \t}\n\n  \tfunction resumeContract()\n    \texternal\n   \t \tonlyOwner()\n  \t{\n    \tisStopped = false;\n  \t}\n\n\tfunction purchaseCourse(\n\t\tbytes32 courseId,\n    \tbytes32 proof\n\t) \n\t\texternal \n\t\tpayable \n\t\tonlyWhenNotStopped \n\t{\n\t\tbytes32 courseHash = keccak256(abi.encodePacked(courseId, msg.sender));\n\t\tif(hasCourseOwnership(courseHash)) {\n\t\t\trevert CourseHasOwner();\n\t\t}\n\n\t\tuint id = totalOwnedCourses++;\n\t\townedCourseHash[id] = courseHash;\n\t\townedCourses[courseHash] =  Course({\n\t\t\tid: id,\n\t\t\tprice: msg.value,\n\t\t\tproof: proof,\n\t\t\towner: msg.sender,\n\t\t\tstate: State.Purchased\n\t\t});\n\n\t}\n\n\tfunction transferCourseOwnership() \n\t\texternal \n\t\tpayable \n\t{\n\t}\n\n\tfunction hasCourseOwnership(bytes32 courseHash)\n\t\tprivate\n\t\tview\n\t\treturns(bool)\n\t{\n\t\treturn ownedCourses[courseHash].owner == msg.sender;\n\t}\n\n\tfunction getCourseCount()\n\t\texternal\n\t\tview\n    \treturns (uint)\n\t{\n\t\treturn totalOwnedCourses;\n\t}\n\n  function getCourseHashAtIndex(uint index)\n    external\n    view\n    returns (bytes32)\n  {\n    return ownedCourseHash[index];\n  }\n\n  function getCourseByHash(bytes32 courseHash)\n    external\n    view\n    returns (Course memory)\n  {\n    return ownedCourses[courseHash];\n  }\n}\n",
  "sourcePath": "/Users/theophilusighalo/Projects/devdezyn/dacademy/web3/contracts/Dacademy.sol",
  "compiler": {
    "name": "solc",
    "version": "0.8.13+commit.abaa5c0e.Emscripten.clang"
  },
  "schemaVersion": "3.4.14",
  "updatedAt": "2023-10-05T10:05:25.445Z",
  "networkType": "ethereum",
  "devdoc": {
    "kind": "dev",
    "methods": {},
    "version": 1
  },
  "userdoc": {
    "errors": {
      "CourseHasOwner()": [
        {
          "notice": "Course already has an Owner!"
        }
      ],
      "CourseIsNotCreated()": [
        {
          "notice": "Course is not created!"
        }
      ],
      "OnlyOwner()": [
        {
          "notice": "Only the owner of this Course can transfer ownership!"
        }
      ],
      "SenderIsNotCourseOwner()": [
        {
          "notice": "Sender is not Course Owner!"
        }
      ]
    },
    "kind": "user",
    "methods": {},
    "version": 1
  }
}